:100000000C942A000C9447000C9447000C94470071
:100010000C9447000C9447000C9447000C9448093A
:100020000C9447000C9447000C9447000C94470034
:100030000C9447000C9409020C9447000C94CB02DA
:100040000C9447000C9447000C9447000C94470014
:100050000C94470011241FBECFE5D8E0DEBFCDBF12
:1000600014E0A0E6B0E0ECE4F3E102C005900D92EC
:10007000AC32B107D9F724E0ACE2B4E001C01D9284
:10008000A936B207E1F70E9449000C94A4090C9428
:100090000000CF93DF93CDB7DEB761970FB6F8942A
:1000A000DEBF0FBECDBFC0908500B0908600A0908F
:1000B00087009090890080908A0070908B006090FB
:1000C0008D0020908E0020918F00298B3090910020
:1000D00040909400509097000E94D5020E94C20464
:1000E00087E090E00E94CB040E94CE040E941C078F
:1000F0000E94EE020E94DF020E94E8030E94220397
:100100008AE990E00E94350784EC90E00E94350770
:1001100088EE90E00E9435078DE091E00E9435075F
:100120008BE391E00E94350782E691E00E9435075B
:1001300082EA91E00E94350780EE91E00E94350747
:100140000E94B60480E092E00E949D043FEF87EA9F
:1001500091E6315080409040E1F700C000000E94DD
:1001600099048AE092E00E949D040E94BA04FF2450
:10017000F394E12C00E0D12C02C0E12C00E00E94BD
:100180006303182F003119F532C1133419F01D33F0
:1001900059F420C00E9499048AE092E00E949D04D4
:1001A0000E94BA04E12C23C1812F0E94B304E1E034
:1001B000F0E0EC0FFD1FEE0DF11D10830E94BE0458
:1001C000E39480912E048F5F80932E0410C18136BA
:1001D000E1F60DC180912E04833051F489818C1198
:1001E00007C08A818B1104C08B818A1509F401C173
:1001F000898189110AC08A81881107C08B8187157E
:10020000A1F103C022E0F212F7C08981861107C074
:100210008A81821104C08B813989831789F0898191
:10022000831509F454C003C084E0F812E9C0898141
:10023000841509F460C08981851509F470C087C0F0
:100240006894FF24F1F891E0F9120DC00E9499041E
:1002500088E192E00E949D040E94BA0487E292E045
:100260000E943507A3C0F11014C00E94990489E6CA
:1002700092E00E949D0464EA28E732E0822F0E9407
:10028000F1020E94BA048EE792E00E943507F12C39
:100290008DC032E0F31218C00E94990480EC92E005
:1002A0000E949D040E94BA0464EA2FEC32E0822F7F
:1002B0000E94F1023FEF81EE94E031508040904087
:1002C000E1F700C0000072C023E0F21211C00E94EA
:1002D000990482ED92E00E949D04A39AAB9A8AED64
:1002E00092E00E9435070F2EF3E0FF2EF02D5EC046
:1002F00034E0F31211C00E94990488E193E00E9457
:100300009D040E94D1048B3108F47FC00E94E40256
:100310006894FF24F2F84AC085E0F81215C00E94E4
:1003200099048FE193E00E949D040E94D1048B31D7
:1003300010F40E94E90287E293E00E9435070F2E35
:10034000F5E0FF2EF02D32C096E0F9122FC0D394C5
:100350000E94990482E793E00E949D042FEF3DE301
:1003600089E4215030408040E1F700C000000E9445
:10037000990486E893E00E949D049FEF2DE339E401
:10038000915020403040E1F700C000000E949904E5
:100390008AE092E00E949D040E94BA0481E993E001
:1003A0000E9435070F2EF6E0FF2EF02D8FEF91EE15
:1003B00024E0815090402040E1F700C0000084EA32
:1003C0000E940B0310922E0432E03D1508F0D5CEAA
:1003D0000E94990489EC93E00E949D040E94DA0235
:1003E0008BED93E00E943507E12C00E0C8CE0F5F53
:1003F000C6CEF11007CFFCCE83E0F81215CF0FCF99
:1004000095E0F91609F417CF1ECF6894FF24F2F88F
:10041000CDCF1F920F920FB60F9211242F933F93BF
:100420004F935F936F937F938F939F93AF93BF93FC
:10043000CF93DF93EF93FF938CB1809363048D335D
:1004400059F090912D04E92FF0E0EC59FB4F808397
:100450009F5F90932D048CC080912D04882309F414
:1004600077C0C0E08C2F90E0FC01EC59FB4FDC0121
:10047000AF59BF4F20818C91281306C080912C0466
:100480008F5F80932C0402C010922D04E0912D0404
:10049000F0E0EC59FB4F8081813311F4A29AAA9AC3
:1004A000E0912D04F0E0EC59FB4F8081833429F476
:1004B000AA98AB9892989398DB98E0912D04F0E07D
:1004C000EC59FB4F8081823311F4A39AAB9AE091EF
:1004D0002D04F0E0EC59FB4F8081833311F48A9AAC
:1004E000929AE0912D04F0E0EC59FB4F8081843327
:1004F00011F48B9A939AE0912D04F0E0EC59FB4FA4
:100500008081813421F485E090E00E94CB048091C9
:100510002D04E82FF0E0EC59FB4F90819E34A1F4BC
:10052000C0E0D0E0CE010E94CB042196CA30D105B4
:10053000C9F7E0912D04F0E0EC59FB4F8081853341
:1005400039F4D49ADC9A04C0CF5FC81708F48ACF74
:1005500090912C0480916000981304C089E194E08C
:100560000E94350710922D0410922C0410926304FF
:10057000FF91EF91DF91CF91BF91AF919F918F91BB
:100580007F916F915F914F913F912F910F900FBE8F
:100590000F901F9018951F920F920FB60F92112473
:1005A0000F900FBE0F901F90189561E081E20E949E
:1005B000F404089561E081E20E947F05089561E0FE
:1005C00081E10E94F404089561E081E10E947F05C9
:1005D000089560E081E10E947F0508950E94410630
:1005E0000895CF93C62F0E94520680E50E9476069A
:1005F0008C2F0E94AF0680E50E94AF060E946C0619
:100600002FEF80E792E0215080409040E1F700C05A
:100610000000CF910895CF93C82F0E94520680E525
:100620000E9476068C2F0E94AF060E94D30680E5BA
:100630000E9492060E94C106C82F0E946C068C2F51
:10064000CF91089561E088E10E94F40461E089E1BE
:100650000E94F40461E08AE10E94F40461E08BE10D
:100660000E94F40461E088E10E947F0561E089E175
:100670000E947F0561E08AE10E947F0561E08BE1D5
:100680000E947F0560E082E20E94F40460E083E261
:100690000E94F40460E084E20E94F40460E085E2D9
:1006A0000E94F40461E082E20E947F0561E083E23F
:1006B0000E947F0561E084E20E947F0561E085E29F
:1006C0000E947F0508950F931F93CF93DF9310E04F
:1006D00008E1010F60E0802F0E947F05C0E0D2E2B8
:1006E000DC0F8D2F0E940A06811111C0E12FF0E06E
:1006F000EE0FFF1FEE0FFF1FEB58FF4FEC0FF11D2A
:10070000C0818D2F0E940A068823D9F30CC0CF5FC9
:10071000C43029F761E0802F0E947F051F5F1430ED
:10072000B9F6C1E604C061E0802F0E947F058C2FDE
:10073000DF91CF911F910F910895CF93C82F8BB365
:100740008F709C2F907F892B8BBB60E08FE10E9484
:100750007F0560E080E20E947F0561E08EE10E94FB
:100760007F058FE19EE40197F1F700C0000060E093
:100770008EE10E947F058FE19EE40197F1F700C0B2
:1007800000008BB3282F2F7030E1C39FC0011124CC
:10079000822B8BBB60E08FE10E947F0560E080E2EE
:1007A0000E947F0561E08EE10E947F058FE19EE45B
:1007B0000197F1F700C0000060E08EE10E947F0524
:1007C0008FE19EE40197F1F700C00000CF910895FA
:1007D0008FEF8ABB61E08FE10E94F4042FEF83ED7D
:1007E00090E3215080409040E1F700C0000061E0BC
:1007F00080E20E94F4042FEF81EE94E021508040CB
:100800009040E1F700C0000061E08EE10E94F40436
:100810002FEF81EE94E0215080409040E1F700C03E
:10082000000083E30E949D032FEF81EE94E02150AE
:1008300080409040E1F700C0000082E30E949D03E9
:100840002FEF81EE94E0215080409040E1F700C00E
:10085000000088E20E949D032FEF81EE94E021507A
:1008600080409040E1F700C000008CE00E949D03B2
:100870002FEF81EE94E0215080409040E1F700C0DE
:10088000000081E00E949D032FEF81EE94E0215053
:1008900080409040E1F700C0000086E00E949D0388
:1008A0002FEF81EE94E0215080409040E1F700C0AE
:1008B00000000895CF93C82F8BB38F709C2F907F2B
:1008C000892B8BBB61E08FE10E947F0560E080E2B5
:1008D0000E947F0561E08EE10E947F058FE99FE025
:1008E0000197F1F700C0000060E08EE10E947F05F3
:1008F0008BB3282F2F7030E1C39FC0011124822BAE
:100900008BBB61E08FE10E947F0560E080E20E9486
:100910007F0561E08EE10E947F058FE99FE00197EE
:10092000F1F700C0000060E08EE10E947F05CF91EA
:10093000089581E00E949D0308950F931F93CF9324
:10094000FC018081882359F08F01C0E00E945A0485
:10095000CF5FF801EC0FF11D80818111F7CFCF91AE
:100960001F910F9108950E945A04089580E80E94F3
:100970009D03089580EC0E949D03089586E00E94E7
:100980009D03089561E08FE00E94F4040E94ED064B
:100990000E94120708950E94010708950E94E00432
:1009A00008950E94E9049C01A4EFB1E00E9495091A
:1009B0002FEF33E040E050E00E947309C901089531
:1009C0003F983E9A3D98379A359A309A319A329AA2
:1009D0000895389A39983A983B983C98369A349BBF
:1009E000FECF84B195B1089598ED980F9930F8F441
:1009F000613069F44AB321E030E0B90102C0660F0A
:100A0000771F9A95E2F7CB01842B8ABB0895611179
:100A100075C04AB321E030E0B90102C0660F771F0C
:100A20009A95E2F7CB01809584238ABB089592EED4
:100A3000980F9930F8F4613069F447B321E030E061
:100A4000B90102C0660F771F9A95E2F7CB01842B9C
:100A500087BB0895611152C047B321E030E0B9016E
:100A600002C0660F771F9A95E2F7CB018095842329
:100A700087BB08959CEE980F9930F8F4613069F4C3
:100A800044B321E030E0B90102C0660F771F9A95A8
:100A9000E2F7CB01842B84BB089561112FC044B3CE
:100AA00021E030E0B90102C0660F771F9A95E2F7A6
:100AB000CB018095842384BB08958A508930F0F45B
:100AC000613069F441B321E030E0B90102C0660F42
:100AD000771F8A95E2F7CB01842B81BB08956111C2
:100AE0000DC041B321E030E0B90102C0660F771FAD
:100AF0008A95E2F7CB018095842381BB089598ED18
:100B0000980F9930F8F4613069F44BB321E030E08C
:100B1000B90102C0660F771F9A95E2F7CB01842BCB
:100B20008BBB0895611175C04BB321E030E0B90172
:100B300002C0660F771F9A95E2F7CB018095842358
:100B40008BBB089592EE980F9930F8F4613069F4F8
:100B500048B321E030E0B90102C0660F771F9A95D3
:100B6000E2F7CB01842B88BB0895611152C048B3D2
:100B700021E030E0B90102C0660F771F9A95E2F7D5
:100B8000CB018095842388BB08959CEE980F993003
:100B9000F8F4613069F445B321E030E0B90102C0F6
:100BA000660F771F9A95E2F7CB01842B85BB0895DA
:100BB00061112FC045B321E030E0B90102C0660FDA
:100BC000771F9A95E2F7CB018095842385BB089522
:100BD0008A508930F0F4613069F442B321E030E0AA
:100BE000B90102C0660F771F8A95E2F7CB01842B0B
:100BF00082BB089561110DC042B321E030E0B9011C
:100C000002C0660F771F8A95E2F7CB018095842397
:100C100082BB089528ED280F293048F489B390E06D
:100C200002C0959587952A95E2F78170089522EE86
:100C3000280F293048F486B390E002C09595879537
:100C40002A95E2F7817008952CEE280F293048F498
:100C500083B390E002C0959587952A95E2F781705D
:100C6000089526EF280F293050F490B3892F90E093
:100C700002C0959587952A95E2F78170089580E0E6
:100C800008950898099888E480B986B7846086BF7B
:100C90002FEF81EE94E0215080409040E1F700C0BA
:100CA0000000089586B7806886BF86B7806286BFD9
:100CB00086B78F7E86BF06B607FEFDCF81B1887FDF
:100CC0008830E1F72FEF81EE94E021508040904092
:100CD000E1F700C00000089586B7806886BF86B738
:100CE0008F7D86BF86B7806186BF0895880F83B9E0
:100CF00086B78F7E86BF86B78F7D86BF86B78068B2
:100D000086BF06B607FEFDCF81B1887F8831E1F747
:100D10002FEF81EE94E0215080409040E1F700C039
:100D200000000895880F816083B986B78F7E86BFE3
:100D300086B7806886BF86B78F7D86BF06B607FEFA
:100D4000FDCF81B1887F8034E1F72FEF81EE94E011
:100D5000215080409040E1F700C00000089583B921
:100D600086B78F7E86BF86B78F7D86BF86B7806841
:100D700086BF06B607FEFDCF81B1887F8832E1F7D6
:100D8000089586B78F7D86BF86B78F7E86BF86B76C
:100D9000806886BF06B607FEFDCF81B1887F8835A3
:100DA000E1F783B1089586B7806286BF86B78F7EEC
:100DB00086BF86B7806886BF06B607FEFDCF81B1C5
:100DC000887F8031E1F72FEF81EE94E02150804061
:100DD0009040E1F700C0000008958FB58E7F8FBD71
:100DE0008FB582608FBD8EB588608EBD8EB58061F7
:100DF0008EBD8FB580688FBD82EE94E097BD86BDB5
:100E0000089522EE34E0482F429FC001439F900D89
:100E1000112464E670E00E945F09615071097BBD96
:100E20006ABD08958EB58E7F8EBD8EB58D7F8EBDC9
:100E30008EB584608EBD089561E08BE00E94F4045D
:100E400060E08AE00E94F40486E880BD529887E65C
:100E500089B9549A539A579A569A8FB780688FBF18
:100E600008955D9BFECF8CB908950F931F93CF9388
:100E7000FC018081882359F08F01C0E00E94310776
:100E8000CF5FF801EC0FF11D80818111F7CFCF9179
:100E90001F910F910895E0913B04F0913C048081F3
:100EA000811107C08FEF9FEF90933104809330043E
:100EB0000895E0913B04F0913C040580F681E02D1B
:100EC0008081918190933104809330040895EF9252
:100ED000FF920F931F93CF93DF9380912F04811183
:100EE00004C1C0913704D09138047E018FEFE81A15
:100EF000F80AF0923804E0923704E114F104B9F4EE
:100F000080913B0490913C042091390430913A0443
:100F100030933C0420933B0490933A04809339042B
:100F2000809132048F5F809332040E944B0780913E
:100F3000300490913104E816F90610F480E0B9C04D
:100F400080E061E0E0913B04F0913C0490819111DC
:100F500007C02FEF3FEF3093310420933004A9C036
:100F6000E0913B04F0913C040580F681E02D068081
:100F7000F781E02D22813381E216F30628F43093C5
:100F800031042093300495C0A285B3852481358136
:100F900046815781E9015D834C83268137814481F5
:100FA0005581E9015B834A83AF014E5F5F4F119624
:100FB0002D913C9112972417350731F42681378102
:100FC00012963C932E931197138612869C91915002
:100FD0009C93A489B589109719F1268537850089D6
:100FE0001189E9011D830C832089318906851785C4
:100FF000E9011B830A8311960D911C9112979F01A1
:10100000245F3F4F0217130731F42089318912966C
:101010003C932E931197158A148A9C9191509C931E
:10102000268990913604921710F42093360430E00C
:10103000D901AA0FBB1FAA0FBB1FAA0FBB1F2A0FE4
:101040003B1FD901A35CBB4F11960D90BC91A02D05
:10105000B583A48314962D913C91159737832683ED
:1010600014962D913C911597E9015B834A8315965F
:101070005C934E931497A689B0E09D01220F331F15
:10108000220F331F220F331FA20FB31FA35CBB4FCE
:10109000B387A2879C919F5F9C93A0916104B091BC
:1010A0006204268956969C91291708F44BCF862F07
:1010B00049CFE0916104F0916204268930E0F901A2
:1010C000EE0FFF1FEE0FFF1FEE0FFF1F2E0F3F1F34
:1010D000F901E35CFB4F9081923008F081E0909140
:1010E0003304992361F081E00AC080913404909127
:1010F00035040196909335048093340480E0DF91A9
:10110000CF911F910F91FF90EF90089580912F0440
:10111000882321F081E080933304089510923304F2
:1011200020913604822F90E0FC01EE0FFF1FEE0F9E
:10113000FF1FEE0FFF1FE80FF91FE35CFB4F30812D
:10114000311111C02150822F90E0FC01EE0FFF1FE2
:10115000EE0FFF1FEE0FFF1FE80FF91FE35CFB4FC1
:101160003081332379F3AC01440F551F440F551FD1
:10117000440F551F480F591FDA01A35CBB4F11964E
:10118000ED91FC9112970280F381E02D1296FC9371
:10119000EE931197405C5B4FE417F50729F4428109
:1011A0005381FD0152834183FC01EE0FFF1FEE0FBF
:1011B000FF1FEE0FFF1F8E0F9F1FFC01E35CFB4F15
:1011C0000180F281E02D8681978190936204809363
:1011D00061042093360408950F920FB6F8940F928D
:1011E0001F9211242F923F924F925F926F927F92A3
:1011F0008F929F92AF92BF92CF92DF92EF92FF9227
:101200000F931F932F933F934F935F936F937F930E
:101210008F939F93AF93BF93CF93DF93EF93FF93FE
:10122000A0916104B09162040DB60D920EB60D92BC
:101230000E94670781110E948608A0916104B09105
:101240006204CD91CDBFDD91DEBFFF91EF91DF91C3
:10125000CF91BF91AF919F918F917F916F915F914E
:101260004F913F912F911F910F91FF90EF90DF9041
:10127000CF90BF90AF909F908F907F906F905F9036
:101280004F903F902F901F900F900FBE0F9008959A
:101290000E94EC081895AA1BBB1B51E107C0AA1FAE
:1012A000BB1FA617B70710F0A61BB70B881F991F07
:1012B0005A95A9F780959095BC01CD01089597FBAB
:1012C000072E16F4009407D077FD09D00E944B0931
:1012D00007FC05D03EF4909581959F4F0895709539
:1012E00061957F4F0895A1E21A2EAA1BBB1BFD0139
:1012F0000DC0AA1FBB1FEE1FFF1FA217B307E407F5
:10130000F50720F0A21BB30BE40BF50B661F771F4C
:10131000881F991F1A9469F760957095809590952C
:101320009B01AC01BD01CF010895A29FB001B39F05
:10133000C001A39F700D811D1124911DB29F700DDE
:0C134000811D1124911D0895F894FFCF29
:10134C00036B68610000000000000000000000005A
:10135C0000000000003738392F3435362A3132334B
:10136C002D43303D2B31323300343536003738398C
:10137C00002A00002B00002D000057656C636F6D78
:10138C006520546F2041646D696E204D6F64650D4E
:10139C000A456E7465722050617373776F72640DB9
:1013AC000A0D0A00796F752063616E204F50656ECF
:1013BC002074686520446F6F7220456E74657220CE
:1013CC0044203D0D0A0D0A00796F752063616E2073
:1013DC00436C6F73652074686520446F6F72204591
:1013EC006E746572204E203D0D0A0D0A00796F75E2
:1013FC002063616E204F50656E20746865206169B2
:10140C007220636F6E646974696F6E657220456ECD
:10141C0074657220413D0D0A0D0A00796F752063C9
:10142C00616E2052756E2036206C65647320456E9B
:10143C00746572203120546F203620413D0D0A0D09
:10144C000A00596F752063616E20616C736F2066A2
:10145C006F6C6C6F77207468652073797374656D2D
:10146C0020616E64207365652077686174207573E4
:10147C006572732061726520646F696E670D0A0D69
:10148C000A00596F752063616E20616C736F206662
:10149C00696E64206F7574204C617374206F6E6577
:1014AC002066726F6D20746865207265676973744D
:1014BC00657220456E746572204C3D0D0A0D0A0054
:1014CC005468656E20446F6E277420466F72676592
:1014DC007420456E74657220273D270D0A0D0A0095
:1014EC0055736572204D6F646500456E746572208E
:1014FC00546865205053200057656C636F6D6520F0
:10150C00757365723120000D0A41646D696E20217E
:10151C00210D0A20596F7520686176652061206D58
:10152C006573736167650D0A20546865726520697F
:10153C0073206120757365725F4F6E65206C6F67E9
:10154C0067656420696E0D0A0057656C636F6D6585
:10155C0020757365723220007573657232000D0A46
:10156C0041646D696E2021210D0A20596F75206828
:10157C006176652061206D6573736167650D0A2066
:10158C005468657265206973206120757365725F9C
:10159C0054776F206C6F6767656420696E0D0A0065
:1015AC0057656C636F6D65207573657233200055DC
:1015BC0055004C4544204F4E20000D0A41646D6986
:1015CC006E2021210D0A20596F75206861766520E7
:1015DC0061206D6573736167650D0A2054686572CF
:1015EC0065206973206120757365725F52554E20BA
:1015FC004C45440D0A0D0A004443204F4E20004434
:10160C0043204F464620000D0A41646D696E20212F
:10161C00210D0A20596F7520686176652061206D57
:10162C006573736167650D0A20546865726520697E
:10163C0073206120757365725F4F46462061697235
:10164C0020636F6E646974696F6E696E670D0A0D45
:10165C000A00496E636F7272656374205061737314
:10166C00776F7264200054727920416761696E2033
:10167C00000D0A4265206177617265202E2E2E0DB9
:10168C000A74686572652061726520696E636F7299
:10169C007265637420617474656D70747320746FFB
:1016AC0020656E7465720D0A00536F727279204357
:1016BC00616E2774204F70656E20000D0A42652004
:1016CC006177617265202E2E2E0D0A746865726525
:1016DC002061726520544852454520696E636F72D3
:1016EC007265637420617474656D70747320746FAB
:1016FC0020656E7465720D0A0057656C6C636F6DB6
:0C170C00652041646D696E200D0A00002C
:00000001FF
